:020000040800F2
:10000000900A0020C9010008D1010008D3010008AE
:10001000D5010008D7010008D90100080000000040
:10002000000000000000000000000000DB010008EC
:10003000DD010008000000003F220008291200082E
:10004000E3010008E3010008E30100084D10000887
:10005000E3010008E3010008F50700083D08000877
:10006000590B0008A50B0008390C0008E301000833
:10007000E3010008E3010008E3010008C9060008E5
:10008000E3010008E3010008E3010008E3010008C0
:10009000E3010008E3010008E3010008E3010008B0
:1000A000E3010008D9120008E3010008E301000899
:1000B000E3010008E3010008E3010008E301000890
:1000C000E3010008E3010008E3010008E301000880
:1000D000E3010008E3010008E3010008E301000870
:1000E000E3010008E3010008E301000800F002F862
:1000F00000F05AF80AA090E8000C82448344AAF168
:100100000107DA4501D100F04FF8AFF2090EBAE865
:100110000F0013F0010F18BFFB1A43F0010318473B
:10012000F4240000142500000A444FF0000C10F8DD
:10013000013B13F0070408BF10F8014B1D1108BF65
:1001400010F8015B641E05D010F8016B641E01F805
:10015000016BF9D113F0080F1EBF10F8014BAD1C55
:100160000C1B09D16D1E58BF01F801CBFAD505E073
:1001700014F8016B01F8016B6D1EF9D59142D6D3CD
:10018000704700000023002400250026103A28BFF5
:1001900078C1FBD8520728BF30C148BF0B607047F9
:1001A0001FB51FBD10B510BD00F058F81146FFF780
:1001B000F7FF01F033FD00F076F803B4FFF7F2FF2C
:1001C00003BC00F07DF8000009488047094800475B
:1001D000FEE7FEE7FEE7FEE7FEE7FEE7FEE7FEE7F7
:1001E000FEE7FEE704480549054A064B7047000054
:1001F00081120008ED00000890040020900A002001
:1002000090060020900600204FF0000200B5134633
:1002100094469646203922BFA0E80C50A0E80C5026
:10022000B1F12001BFF4F7AF090728BFA0E80C50D7
:1002300048BF0CC05DF804EB890028BF40F8042BD0
:1002400008BF704748BF20F8022B11F0804F18BF3D
:1002500000F8012B7047704770477047754600F0F3
:100260002BF8AE4605006946534620F00700854648
:1002700018B020B5FFF7B6FFBDE820404FF00006EC
:100280004FF000074FF000084FF0000BAC46ACE811
:10029000C009ACE8C009ACE8C009ACE8C00921F06D
:1002A00007018D46704710B50446AFF30080204625
:1002B000BDE81040FFF781BF00487047B003002041
:1002C00001491820ABBEFEE726000200704700007F
:1002D00041F21400C4F20200016841F00101016022
:1002E0000820C4F20200016821F0100101600168D9
:1002F00041F020010160016821F0400101600168C6
:1003000041F080010160016821F4407101600168E1
:1003100041F480710160016821F44061016001686D
:1003200041F480610160016821F44051016070472F
:1003300081B0ADF802200822C4F20202D0609160C0
:10034000BDF802005060106840F00100106001B07C
:1003500070470000F0B541F2180CC4F2020CDCF852
:10036000003043F00403CCF8003092B140F60003B3
:10037000C4F201034C1E4FF00F0E154614F8016F26
:100380001F68B6000EFA06F627EA0606013D1E6053
:10039000F4D142F20043C4F20103984208D042F67D
:1003A0000003C4F20103984209D14FF4806301E0D5
:1003B0004FF40073DCF800703B43CCF80030436826
:1003C00023F400034360436823F4702343604368CD
:1003D00023F400634360436843F40073436043685D
:1003E00043F480734360436843F040034360836891
:1003F00023F480038360836823F48013836083681D
:1004000043F460238360836823F40063836083681C
:1004100043F480738360836843F002038360CAB14E
:100420004B1E4FF0070C4FF0050E144613F8015FFA
:10043000066905EB45050CFA05F526EA0505056193
:100440001D78066905EB45050EFA05F53543013CB7
:100450000561EBD1C36A23F47003C36240F2000369
:10046000CFF6F073C76A03EB025343EA0703C36294
:10047000C2B1013902EB820200234FF01F0C00BF12
:1004800011F8017F466B07EB87070CFA07F726EA9E
:10049000070747630F78466B9F40053337439A42FF
:1004A0004763EDD1816841F001018160816841F0CD
:1004B00001018160816841F480018160F0BD00002C
:1004C0002DE9F04740F600490C4641F48061C4F242
:1004D000010990464945054601D1012006E0A4F1F5
:1004E0008040A0F58830B0FA80F0400942F6004A1A
:1004F000C4F2010A01F014F80646A5EB0A0005F162
:100500004041B0FA80F0B1FA81F14009490908434D
:1005100001F006F807460020B8F1080F38BF0120A7
:1005200000F0FEFF40F29011C2F200011122002EF5
:100530000A7018BF002F01D1BDE8F0870028FBD05A
:1005400041F218005545C4F2020024D0B5F1804FA5
:1005500049D141684FF0FF3341F0010141604FF054
:1005600080410A88232742F080020A800A8822F00C
:1005700003020A801422C4F20002138300231382B0
:1005800097829383138843F0010313800A8842F013
:1005900001020A8027E00168472241F400610160FE
:1005A000BAF8001041F08001AAF80010BAF8001063
:1005B00021F00301AAF800104FF0FF31AAF82C1027
:1005C0000021AAF82410AAF82820AAF83010BAF8B6
:1005D000141041F00101AAF81410BAF8001041F00B
:1005E0000101AAF8001040F60001C4F201018C429A
:1005F00009D041F20001C4F201018C4205D04C4502
:1006000007D1082102E0042100E010210268114313
:1006100001604FEA88010F20226800FA01F322EA04
:1006200003002060032022688840104320600120DE
:10063000E26800FA08F00243E260E768DA4327EA7A
:100640000003E36012230027AF8400BFAE8CB6F531
:100650007A7FFBD3013B1E06F6D1E3680343E360D8
:1006600023681A4022600822236802FA01F1194324
:1006700021602169014321610021A984AA8C3B2AC0
:1006800006D8A1680142F9D101213B2A03D90CE027
:1006900000213B2A09D80022AA8400BFAA8C632A21
:1006A00003D8A2680242F9D0022102297FF444AFA4
:1006B0000021A984A98C632988BFBDE8F087A168BF
:1006C0000142F7D138E70000F0B583B00425C4F249
:1006D000020555F8040C800377D540F28046C2F23B
:1006E0000006307863282FD170786D282CD1B0782F
:1006F000642829D1F078317900F078FF40F2A00128
:10070000C2F200010870087800F076FC47F6004459
:10071000C0F60004204600F091FB40F26C40C2F2AB
:10072000000001680822ADF804104168ADF8061019
:100730008168ADF80810C06801A9ADF80A0020462C
:1007400000F0D2FB782030703078402839D17078B2
:10075000B17800F04BFFF27831790446104600F092
:1007600045FF40F26C47C2F200077C6047F6004448
:10077000C0F600043860204600F060FB386801A92C
:10078000ADF8040078680822ADF80600B868ADF846
:100790000800F868ADF80A00204600F0A5FB40F21A
:1007A000DC10C2F20000016840F29830C2F2000092
:1007B000027845F20040C4F2000000F035FF7820D6
:1007C0003070286840F40030286003B0F0BD0000AD
:1007D00081B0ADF802205822C4F20202D0609160CC
:1007E000BDF802005060106840F00100106001B0D8
:1007F0007047000010B540F21444C4F201042068B0
:10080000C00708BF10BD40F2DC10C2F20000016852
:100810004A68002A1CBF49680160016840F29830AC
:10082000C2F20000027845F20040C4F2000000F07D
:10083000FBFE206840F00100206010BD2DE9F04370
:1008400083B040F21446C4F201063068800740F1DC
:10085000018140F2DC19C2F20009D9F800000178E8
:1008600008291DD147F6004440F26C45C0F600044B
:10087000C2F2000520462946042200F00DFB40F29A
:100880009837C2F20007387803285BD0022840F07E
:1008900083802868272800F27D80286801307AE06C
:1008A00001780B292FD147F6004440F26C45C0F681
:1008B0000004C2F2000520462946042200F0ECFAAA
:1008C00040F29838C2F2000898F80000042800F0BE
:1008D0007B80032800F08080022840F0908040F266
:1008E000A000C2F20000017801F0FD01017040F2A9
:1008F0007C40C2F200000021016040F28F40C2F251
:10090000000001217AE00178032923D140F25F44FD
:10091000C2F2000421780131217040F29831C2F214
:1009200000010978022940F091802178032940F0E4
:100930008D80C16919B1C269002000219047002053
:10094000207083E0686863288EBF282068680130C3
:10095000686021E001780A2940F07F8040F28C40F5
:10096000C2F20000007840F2A005821E0E2AC2F2F8
:10097000000500F2AC80FE200121DFE802F0A1A812
:1009800008A890A893A896A899A89CA89F00FD20C5
:10099000022195E014202860204600F04FFA2868D4
:1009A00001A9ADF8040068680822ADF80600A8683F
:1009B000ADF80800E868ADF80A00204600F094FAA7
:1009C000D9F800103A783BE0E8682F288EBF0C2059
:1009D000E8680130E86012E040F2A000C2F20000D6
:1009E000017841F00201017040F27C40C2F2000047
:1009F0000021016040F28F40C2F20000017040F21D
:100A0000A007C2F20007387800F0F6FA3878A8603C
:100A1000204600F013FA286801A9ADF804006868C0
:100A20000822ADF80600A868ADF80800E868ADF83F
:100A30000A00204600F058FAD9F8001098F8002073
:100A400045F20040C4F2000000F0EEFD306840F0D6
:100A50000200306003B0BDE8F08300780928F5D1CA
:100A600040F29830C2F200000078032808D0022833
:100A7000ECD140F26040C2F2000002210170E5E7D3
:100A800040F26040C2F2000003210170C820002142
:100A900000F0F0FA4FF4FA7001F05CFBD6E7FB20AF
:100AA00004210DE0F72008210AE0EF20102107E0E3
:100AB000DF20202104E0BF20402101E07F208021B1
:100AC0002A782B780A40184010434840287028782C
:100AD00000F092FA287840F26C4747F60044C2F2E0
:100AE0000007C0F60004B860204600F0A7F9386897
:100AF00001A9ADF8040078680822ADF80600B868CE
:100B0000ADF80800F868ADF80A00204600F0ECF9EE
:100B100040F29830C2F20000D9F80010027845F295
:100B20000040C4F2000000F07FFD40F26144C2F2D8
:100B3000000444F6434020802F20A0702878E11C58
:100B400000F00EFD0020A07143F60000C4F2010089
:100B5000214600F0B1FC79E710B540F21444C4F22C
:100B600001042068400758BF10BD40F29830C2F21F
:100B700000000178032926BF0178013904210170A2
:100B800040F2DC11C2F200010968027845F200402F
:100B9000C4F2000000F048FD206840F0040020602E
:100BA00010BD0000F0B581B040F21445C4F201055B
:100BB000286800073ED540F2DC16C2F20006316814
:100BC00045F20044087840F29837C4F200040A283D
:100BD000C2F200070FD140F28C40C2F2000002784E
:100BE000023202700278122A04BF022202703A789E
:100BF000204600F019FD3878042808D003280BD0CF
:100C000002280ED13068016959B1006908E03068E6
:100C1000816B31B1806B03E03068416A09B1406A91
:100C2000306031683A78204600F0FEFC286840F0D9
:100C30000800286001B0F0BD10B540F21444C4F2C1
:100C400001042068C00658BF10BD40F29830C2F2BF
:100C50000000017803299ABF017801310221017057
:100C600040F2DC11C2F200010968027845F200404E
:100C7000C4F2000000F0D8FC206840F010002060B2
:100C800010BD000041F21801C4F2020108684FF6DD
:100C9000104C40F0010008600820C4F20100026816
:100CA000CFF6FF7C22F00F020260026822F0F00211
:100CB0000260026822F470420260026842F001029F
:100CC0000260026842F010020260026822F4706260
:100CD0000260026822F470420260426822F00F0251
:100CE0004260426842F0010242600A6842F0080233
:100CF0000A600A6842F004020A6040F60041C4F249
:100D000001010A6822F00F020A600A6842F0080234
:100D10000A600A6942F001020A61D0F8F82342F041
:100D20000102C0F8F82340F20C42C4F20102136839
:100D300043F001031360D0F8003423F00103C0F83E
:100D400000340B6823F0F0030B600B6843F0800362
:100D50000B600B6943F002030B61D0F8F83343F0EA
:100D60000203C0F8F833136843F002031360D0F8AD
:100D7000003423F00203C0F80034D2F8F43323F433
:100D80007063C2F8F433D2F8F43343F40063C2F86A
:100D9000F43351F80C3043F0040341F80C30D0F830
:100DA000F83343F00403C0F8F833136843F0040346
:100DB0001360D0F8003423F00403C0F80034D2F8F4
:100DC000F43323F47043C2F8F433D2F8F43343F429
:100DD0000043C2F8F43351F80C3043F0080341F8F3
:100DE0000C30D0F8F83343F00803C0F8F833136838
:100DF00043F008031360D0F8003423F00803C0F870
:100E000000340B6823F470230B600B6843F4002359
:100E10000B600B6943F010030B61D0F8F81341F03D
:100E20001001C0F8F813116841F010011160D0F8FA
:100E3000001421F01001C0F80014704781B042F294
:100E40001001C4F202010090086800060BD540F2C0
:100E50002310C4F2675041F80C0C48F6AB10CCF6E6
:100E6000EF5041F80C0C086840F002000860009850
:100E70004860086840F04000086000BF51F8040C6A
:100E80008007FBD4086820F002000860086820F0A2
:100E90004000086001B0704782B042F20403C4F21F
:100EA00002030190009200BF98688007FCD4D868C4
:100EB000000609D540F22310C4F26750186048F6C6
:100EC000AB10CCF6EF501860009850B1002000BF76
:100ED000019A32F8102041F82020009A0130904207
:100EE000F6D302B07047000010B582B042F2100C89
:100EF000C4F2020C01900092DCF80000800705D5D6
:100F0000DCF8000020F00200CCF800000098C007D8
:100F100002D00098013000900098DCF800204FEAE1
:100F2000500E12060BD540F22312C4F267524CF851
:100F30000C2C48F6AB12CCF6EF524CF80C2CDCF82B
:100F40000020BEF1000F42F00102CCF8002015D0C5
:100F50004EF614530022CEF2000307E031F81200DF
:100F6000019C24F812000132964507D0186800074A
:100F7000F4D5186820F008001860EFE75CF8040C5E
:100F80008007FBD4DCF8000020F00100CCF8000062
:100F900002B010BD41F21800C4F20200016841F035
:100FA0000401016040F60400C4F20100016821F070
:100FB0000F010160016841F003010160016941F422
:100FC00080710161016821F470410160016841F4A0
:100FD00040510160016941F400610161016821F43F
:100FE00070210160016841F440310160016941F400
:100FF000805101617047000040F610010022C4F2E8
:10100000010110E04B6843F400634B604B68400003
:1010100043F480534B600B68072A43F4805302F17A
:1010200001020B6008D243B2B3F1FF3FEADC0B6868
:1010300043F400630B60E9E7486840F4807048605F
:10104000086840F4807008607047000042F60400B1
:10105000C4F200000188C90708BF704740F28E4102
:10106000C2F200010A7801320A70018821F0010100
:101070000180704770B50D46044663284FF00100AB
:1010800008DD642C0BD0C82C09D0B4F5C87F06D07D
:10109000002004E0192C02D0322C18BF002000F0F0
:1010A0003FFA06460020022D38BF012000F038FA32
:1010B000002E18BF00281FD040F61006C4F201060B
:1010C00030682021002D08BF4FF400110843002C88
:1010D000306008BF70BD00BF306840F04000306035
:1010E000012001F037F8306840F4800030600120C2
:1010F00001F030F8013CEFD170BD000041F2180062
:10110000C4F20200016841F00401016040F60000F1
:10111000C4F20100016821F470010160016841F42A
:1011200040110160016941F400110161016821F081
:1011300070610160016841F040710160016941F432
:1011400080010161016821F070410160016841F096
:1011500040510160016941F40001016170470000E4
:1011600080B500F001F880BD82B041F2040000219A
:10117000C4F202000191009150F8041C41F4803146
:1011800040F8041C50F8041C01F40031009101994E
:1011900001310191009919B90199B1F5A06FF1D10F
:1011A00050F8041C890354BF0021012100910099CB
:1011B000012936D142F20001C4F202010A6842F06C
:1011C00010020A600A6822F003020A600A6842F00C
:1011D00002020A600168016001680160016841F46F
:1011E00080610160016821F47C110160016841F4B3
:1011F000E811016050F8041C41F0807140F8041CB3
:1012000050F8041C8901FBD5016821F0030101603D
:10121000016841F002010160016801F00C01082938
:10122000FAD102B07047000010B540F2884EC2F209
:10123000000EDEF8001040F224420131CEF800101A
:101240000021C2F200024FF0FF0C02E00D3127290D
:101250000CD05318587DFF28F8D0D3F81100DEF8D1
:101260000040A04208BF83F815C0EFE74EF60450D7
:10127000CEF20000016841F08051016010BD000015
:1012800080B541F20000C4F202000168002241F082
:10129000010101604168CFF6FF0211404160016821
:1012A0004FF6FF72CFF6F66211400160016821F43B
:1012B00080210160416821F4FE0141604FF41F016B
:1012C0008160FFF74DFF4EF60850CEF200004FF060
:1012D0000061016080BD000070B542F61044C4F2A8
:1012E00001042088C00708BF70BD40F27C40C2F2F4
:1012F0000000016840F26C45013140F2A006016037
:10130000C2F20005C2F20006E9683278920711D4F1
:101310000168B1F5967F1FD140F28F41C2F2000102
:101320000A78CAB1327842F00202327000220A70A2
:10133000026011E00268C1EB0111B2EB810F0BD129
:101340003178012201F0FD01317040F28F41C2F28B
:1013500000010A70002101603078FFF74DFE3078FF
:10136000A860208820F00100208070BD41F21801A3
:10137000C4F202010A6842F004020A6040F6040264
:10138000C4F20102136823F0F0031360136823F41E
:1013900070631360136843F0B0031360136843F481
:1013A00000631360936843F4806393600A6842F4B7
:1013B00080420A60828942F400528281828922F44A
:1013C00080528281028A22F44052028241F64C52BB
:1013D0000281828942F004028281828A42F04002C4
:1013E000828251F8040C40F0010041F8040C5820AE
:1013F000C4F20200016821F010010160016841F0AF
:1014000020010160016821F040010160016841F0A4
:1014100080010160016821F440710160016821F4DC
:1014200040610160016821F440510160016841F0B0
:10143000020101607047000041F21801C4F202018C
:101440000A6842F004020A6040F60402C4F2010293
:10145000136823F0F0031360136823F470631360C0
:10146000136843F0B0031360136843F40063136020
:10147000936843F4806393600A6842F480420A6090
:10148000818941F400518181818921F480518181D8
:10149000018A21F44051018241F64C510181818938
:1014A00041F008018181818941F0040181818189B4
:1014B00041F02001818170470A784AB103881B06F8
:1014C000FCD5D2B2828011F8012F002AF6D100BFDC
:1014D00001884906FCD5018821F040010180704750
:1014E000002848BF704700F01F00012101FA00F0FA
:1014F0004EF20011CEF20001086070474EF6145310
:1015000000F00F02CEF2000309011A4400F160431B
:10151000B0F1FF3FC8BF03F564421170704700008F
:10152000002840F25E40C2F2000004BF01210170B9
:10153000007880F00100704710B504464EF21000AC
:10154000CEF200000021016041604FF0010080F305
:101550001388206800F0A2FD6068804710BD00007D
:1015600010B54CF6CD4E8C460A28CCF6CC4E4FF03A
:10157000010209D3014600BF8BB2A3FB0E14E108A0
:10158000632B02F10102F7D891B200230A280CF86C
:10159000013010D383B20146A3FB0E04E00800EB38
:1015A0008004013AA1EB440141F0300194B2632B75
:1015B0000CF80410EED8511E00F1300289B26046DA
:1015C0000CF8012010BD00004EF62450CEF20000B1
:1015D000016841F480210160016841F4003101603B
:1015E000016841F480310160704700006FF06F02C4
:1015F00002EB00123A2838BF02013A2928BF09310C
:1016000001F00F001044C0B27047000040F2923069
:10161000C2F2000000780D21484340F22441C2F29A
:10162000000108587047000070B582B08DF807209F
:101630000D4609780446082957D120460121002289
:1016400000F06EFAA968204600F0D6FA2046022182
:10165000002200F065FAE968204600F0CDFA204645
:101660000321002200F05CFA296A204600F0C4FA47
:1016700020460421002200F053FA696B204600F056
:10168000BBFA9DF807102046002200F049FA42F20A
:10169000FD51C0F60001204600F0AEFA40F26C4564
:1016A000C2F2000547F60040C0F6000029460222BB
:1016B000FFF7F2FB20460221102200F031FA2868E1
:1016C00040F21046C2F2000680B23146FFF748FFF2
:1016D0000146204600F090FA20460321102200F037
:1016E0001FFA6868314680B24AE028780B284FD14B
:1016F00020460121002200F013FAA968204600F0DC
:101700007BFA20460221002200F00AFAE96820460E
:1017100000F072FA20460321002200F001FA296A43
:10172000204600F069FA20460421002200F0F8F972
:10173000696B204600F060FA9DF8071020460022F1
:1017400000F0EEF942F2FD51C0F60001204600F033
:1017500053FA40F26C45C2F2000547F60040C0F66D
:10176000000029460422FFF797FB204604210F22A0
:1017700000F0D6F9E86840F2104180B2C2F20001F0
:10178000FFF7EEFE0146204600F036FA02B070BDCB
:10179000287809282ED120460121002200F0C0F926
:1017A000A968204600F028FA20460221002200F015
:1017B000B7F9E968204600F01FFA2046032100220D
:1017C00000F0AEF9296A204600F016FA20460421FE
:1017D000002200F0A5F9696B204600F00DFA9DF893
:1017E00007102046002200F09BF942F2FD51C0F69E
:1017F0000001C8E7287800283ED02E782046012135
:10180000002200F08DF9A968204600F0F5F9204685
:101810000221002200F084F90A2E40F0838040F279
:10182000A000C2F20000007840F29931C2F200013B
:1018300000F0E4FCE860E968204600F0DDF92046AD
:101840000321002200F06CF9296A204600F0D4F947
:1018500020460421002200F063F9696B204600F065
:10186000CBF940F28C40C2F20000027820460321FE
:1018700000F056F93EA186E720460121002200F043
:101880004FF9A968204600F0B7F92046022100224E
:1018900000F046F9E968204600F0AEF92046032141
:1018A000002200F03DF9296A204600F0A5F9204603
:1018B0000421002200F034F9696B204600F09CF905
:1018C0009DF807102046002200F02AF942F2FD514F
:1018D000C0F60001204600F08FF940F28040C2F2CD
:1018E00000004178612940D181786E293DD1C078CE
:1018F00067283AD145F20044C4F20004204604218E
:10190000112200F00DF91BA1204600F075F940F2FC
:10191000941040F24831C2F20000C2F2000181632B
:1019200002B070BDE968204600F066F92046032148
:10193000002200F0F5F8296A204600F05DF9204603
:101940000421002200F0ECF8696B204600F054F905
:101950009DF807102046002200F0E2F842F2FD5107
:10196000C0F60001204600F047F902B070BD00BF8C
:101970005E000000282A2900018200BF818A8907B1
:10198000FCD5818A008B704745F20041C4F200010A
:10199000884241F21801C4F202010FD10A6842F0F4
:1019A00008020A6040F60042C4F20102136843F0E4
:1019B00070631360136843F0704313604A6842F425
:1019C00000124A60018841F40041018001886FF3F0
:1019D000DF310180818821F03F018180818841F0E1
:1019E00024018180B421818325210184018841F073
:1019F0000101018070470000F0B581B01D46164618
:101A00000F46044600F014F820463946FFF7B4FFAD
:101A100045B10020A18A0906FCD5315C0130A842FD
:101A20002182F7D1A08A4007FCD501B0F0BD0000AB
:101A3000018841F480710180818AC907FCD0808AC5
:101A4000704700002DE9F04744F20040C2F2000068
:101A500040F2244A00F54061C2F2000ACAF80010C0
:101A600000F50061CAF80D1000F58061CAF81A107F
:101A7000CAF82700FF208AF808008AF815008AF8BB
:101A800022008AF82F0040F24800C2F2000090E8DD
:101A90000E00C06800250D264FF080786FF0020917
:101AA000CAF80910CAF81620CAF82330CAF830005C
:101AB00005FB06F05AF8004005FB06A744F8048C25
:101AC000D7F80900342144E90390A4F14000FEF75F
:101AD0009BFB0C2004304028FCD10135201A042D3A
:101AE000386008BFBDE8F087E2E7000080B582B04B
:101AF00001F0F002090102F10D0309328DF8052011
:101B000001F10D0209318DF804308DF806208DF8B1
:101B1000071001AA4E210423FFF76EFF02B080BD1B
:101B20000139032907D8DFE801F002080B0E6FF036
:101B30007F01514009E0002107E0A2F1400104E0EB
:101B4000A2F16C0101E0A2F12C0180B5C9B200F054
:101B500039F8022000F0FEFA80BD000010B53321F4
:101B6000044600F02FF82046322100F02BF8022026
:101B700000F0F0FA2046282100F024F8022000F0BE
:101B8000E9FA2046012100F01DF8022000F0E2FAF7
:101B90002046062100F016F8022000F0DBFA20466D
:101BA0000C2100F00FF8022000F0D4FA20460221A8
:101BB00000F008F8022000F0CDFA2046802100F065
:101BC00001F810BD80B582B001F0F002090102F108
:101BD0000C0308328DF8052001F10C0208318DF854
:101BE00004308DF806208DF8071001AA4E21042339
:101BF000FFF702FF02B080BDB0B50A78002A08BF27
:101C0000B0BD04464D1E00BFD1B22046FFF76EFFA7
:101C1000AA780135002AF7D1B0BD0000FFF7D4FC47
:101C200044F20000C2F2000000F0FAFAFFF70AFFE7
:101C300000F0F9FA00F080FA43F60000C4F2010067
:101C4000FFF7FAFB40F26C44C2F2000447F6004092
:101C5000C0F6000021460422FFF71EF9A06840F2FA
:101C6000A001C2F200010870FFF794F9FFF746FAED
:101C70004FF0FF300021FFF741FC4FF0FF30FFF73E
:101C80002FFC6FF001000A21FFF738FC00F056F836
:101C9000002918BF70472DE9F04184B000260546A1
:101CA000ADF80C60CDE90166006869682A7A01AC7C
:101CB00004F10408FEF704FCD5E900012A7AEB6878
:101CC00000F03EF9286902211022FFF729FFD5E92B
:101CD000030721468078FFF743FC01463846FFF7AB
:101CE0008BFF286903211022FFF71AFFD5E90307AC
:101CF00021460078FFF734FC01463846FFF77CFFA9
:101D00005320E9688DF804000878611CFFF728FC6F
:101D10002F20E9688DF8070088784146FFF720FCFE
:101D200043F60000C4F2010021468DF80A60FFF777
:101D3000C3FB04B0BDE8F0417047000045F2004429
:101D4000C4F200042046FFF71FFE2046FFF706FFFF
:101D500004F56440FFF70AFB40F2804043F60401BB
:101D6000C2F20000C4F201010522FEF731FD0F208E
:101D7000FFF7B6FB0F200221FFF7C0FBFEE70000D4
:101D800042F2004440F29031C4F20104C2F2000178
:101D900020460222FEF7DEFAFEF79AFA40F25A488F
:101DA000C2F2000804F14C0140460222FEF7C0FADC
:101DB00040F2A000C2F200000078FFF71DF940F2E7
:101DC000604540F28D46C2F20005C2F200060027CF
:101DD00002E000BF37702F70B8F80000FF2803D86A
:101DE0004FF4FA7000F0B6F92878022816D137704F
:101DF00030785A2811D800BFC8200121FFF73AF9DE
:101E00004FF4967000F0A6F92878032805D03078B2
:101E10000130307030785B28EED32F70287803289B
:101E2000DAD13478002CD5D0C8200021FFF722F970
:101E30004FF4967000F08EF9287802281CBF013C00
:101E40005FEA0460F0D1C5E745F20044C4F2000443
:101E50002046FFF799FD2046FFF780FE40F2DC1890
:101E600040F29830C2F20008C2F20000D8F8001028
:101E700002782046FFF7D8FBFEF704FF00F094F944
:101E800006200121FFF73AFB0620FFF729FB072078
:101E90000121FFF733FB0720FFF722FB0820012178
:101EA000FFF72CFB0820FFF71BFB09200121FFF7A0
:101EB00025FB0920FFF714FB0A200121FFF71EFB79
:101EC0000A20FFF70DFB19200221FFF717FB19204D
:101ED000FFF706FB40F2933740F26C4440F2A00556
:101EE00040F2EC0947F60046C2F20007C2F20004D5
:101EF000C2F20005C2F20009C0F600060AE000BF07
:101F0000B87820682878FFF777F8387860682878FC
:101F1000FFF772F8D8F8000041690029F0D0426953
:101F2000484600219047304621460422FEF7B4FF80
:101F300040F6B83000F00EF9E2E70000FEE70000DE
:101F40002DE9F04740F25845984691460E4607461F
:101F50004FF0FF34C2F200054FF0000A3846314618
:101F60004A4685F800A000F06FF829784A4601F04B
:101F70007F0141EAC01028703846314600F064F80D
:101F8000297800F0010001F0BF0141EA80102870BB
:101F9000384631464A4600F057F8297800F00100EB
:101FA00001F0DF0141EA40102870384631464A46C8
:101FB00000F04AF8297800F0010001F0EF0141EA51
:101FC00000102870384631464A4600F03DF829781E
:101FD00000F0010001F0F70141EAC0002870384626
:101FE00031464A4600F030F8297800F0010001F04F
:101FF000FB0141EA80002870384631464A4600F02D
:1020000023F8297800F0010001F0FD0141EA4000C9
:102010002870384631464A4600F016F8297800F014
:10202000010001F0FE0108442870287808EB040143
:102030000134042C487091D140F29010C2F200009B
:1020400022210170BDE8F08700238384012303FA75
:1020500002F200BF838C632B0FD88B681342F9D038
:1020600000238384838C632B07D88B681342F9D1B8
:10207000808C322884BF0120704700207047000008
:1020800040F29231C2F2000109780D22514340F230
:102090002442C2F2000250507047000080F30888CA
:1020A0007047704780B540F6B83000F053F846F2FC
:1020B0000000C0F60000FFF73FFA80BDB0B540F267
:1020C000923040F2901E40F224430021C2F2000000
:1020D000C2F2000E4FF0030CC2F200030D2211E019
:1020E000047804F003040470047804FB0234247AB6
:1020F000057805FB02352D7AFF2D15D0032901F156
:10210000010114D20478032C05D19EF80040112C53
:1021100008BF80F800C09EF80040222CE0D104786F
:1021200001340470DCE700BF0578002DE6D0FF2CF9
:102130001CBF00210170B0BD4EF2100041F63F11EE
:10214000CEF20000C0F20101416000218160072150
:102150000160704780B5EFF3108172B640F29231A2
:10216000C2F200010A78E2B140F28842C2F20002F3
:1021700012680B7840F2244CC2F2000C4FF00D0EA6
:1021800003FB0EC3104458600878002100FB0EC00A
:1021900001724EF60450CEF20000016841F0805109
:1021A000016062B680BD000041F21800C4F2020076
:1021B000016841F40061016042F60040C4F2010090
:1021C000018841F080010180018821F00301018034
:1021D00042F20F71818547210185002181846321AD
:1021E0000186818A41F001018182818941F00101EA
:1021F0008181018841F00101018070478C460022F5
:1022000020FA02F3DB070CEB42014FF0310302F13D
:10221000010208BF3023082A8B70F1D16046704755
:1022200080F30888704700B5FFF7F0F980F309885C
:102230005DF804EB4FF0020080F31488704772B62B
:10224000EFF3098020E9F00F00B5FFF719FFFFF762
:1022500035FFFFF7DBF9B0E8F00F80F309885DF890
:1022600004EB62B670472020202020202020202070
:10227000202020202020202020200020204F4E2021
:10228000202020202020202020202020202020006E
:1022900020204F46462020202020202020202020C3
:1022A0002020202000202050554D5020202020208C
:1022B00020202020202020202000202044485431AD
:1022C000312020202020202020202020202000201D
:1022D000534156455F444154412020202020202076
:1022E0002020202000202053455454494E472020D0
:1022F000202020202020202020002020434F4E544A
:10230000524F4C2020202020202020202020002060
:102310002050554C4C20494E2020202020202020A9
:1023200020202000202053454E534F525320202080
:1023300020202020202020200020204143544956E6
:10234000455F312020202020202020202000202038
:102350004143544956455F32202020202020202030
:1023600020200020204143544956455F332020203F
:102370002020202020202000202054485245534F68
:102380004C44202020202020202020200020204FEE
:102390005554484F555345202020202020202020F0
:1023A0002000202050555348204F555420202020F5
:1023B00020202020202000202047415244454E5F0D
:1023C00031202020202020202020002020474152A2
:1023D00044454E5F32202020202020202020002055
:1023E000204E4F5F5550444154452020202020204E
:1023F0002020200020204143545541544F52532067
:1024000020202020202020200020202020202020EC
:10241000444854313120202020202020200020203A
:10242000202020202050554D5031202020202020D9
:102430002020002020444F20414D202020203A2001
:10244000202020202020200020204E4849455420D4
:10245000444F203A2020202020202020002020202F
:102460002020205550444154452020202020202069
:10247000200020205945535F5550444154452020A9
:1024800020202020202000202020202020434F4EEC
:1024900054524F4C20202020202020002020524148
:1024A000494E5F53454E534F52202020202020207C
:1024B0000020204144445F53454E534F5253202047
:1024C0002020202020002020202020534554544943
:1024D0004E475F3120202020202000202020202077
:1024E0002047415244454E5F3120202020202000CB
:1024F000202020202053454E534F52535F3120203F
:102500002020202000202020202020474152444528
:102510004E5F322020202020200020544852455376
:102520004F4C445F54454D203A202020202020006D
:102530002054485245534F4C445F48554D203A2053
:1025400020202020200020204155544F4D41544947
:102550004F4E203A20202020202000202020202024
:1025600054485245534F4C445F31202020202000D6
:1025700020202020204F5554484F5553455F31208F
:102580002020202000202020204143545541544F3A
:1025900052535F3120202020200020205448414900
:1025A0005F56414E5F53414E47202020202000209F
:1025B00020202020204D41494E5F4D454E55202082
:1025C000202000202048494E54202120315F5354C0
:1025D0004550203D2034350020205550444154457D
:1025E0005F56455253494F4E3A003C20303D303DF6
:1025F000303D303D303D303D303D3020203E0020EC
:1026000054565320203A20313A4F4646202F204F2F
:102610003A4F4E003426000800000020B0030000AE
:102620002801000870270008B0030020E006000021
:102630008401000842051201142085251408A522F2
:1026400014082802C220138D231B08E020C11AFAA7
:10265000282258B914133D1F14083D1D1B0881047E
:1026600013491E63080A142087241B08EA5C011022
:102670001A664401100A11FF2832FF32071A7098B7
:102680001A094C1A4804418B911C2C5A3314C11A54
:1026900078B811CA03A411142C01401A0804312A75
:1026A000931C12543340011A94E01ADB441A243468
:1026B0002968C12AF448D9EC1AE5BCDAB8285A02CC
:1026C000481A05C4294801105948D129480110B2B7
:1026D000221AAF4C2AB7381958C11ACB14DA481449
:1026E0001AD82C0110299062091B2070200A110FA2
:1026F000840A11A2140A11C34C5A0B48131E240B4E
:1027000011087BB80A1190140A114648420419981E
:102710001AF0481ABA341AA454C11A9C1801100AA3
:1027200011B1145A06481AC61C0A1139C40A114EAE
:10273000140A116314291129841A5BAC0A111AB006
:102740000A1130140A11CFEC32031A94901A5D90DA
:10275000DA72B013A5200B1108DF7C0A119A5C2DE8
:102760000104010A01BE023C20303D023420203E1B
:04000005080001C925
:00000001FF
