:020000040800F2
:1000000028420020C9010008D1010008D3010008DE
:10001000D5010008D7010008D90100080000000040
:10002000000000000000000000000000DB010008EC
:10003000DD010008000000006F1D0008E10F00084E
:10004000E3010008E3010008E3010008190E0008BD
:10005000E3010008E3010008FD0600084507000869
:10006000AD080008F90800088D090008E301000840
:10007000E3010008E3010008E3010008BD060008F1
:10008000E3010008E3010008E3010008E3010008C0
:10009000E3010008E3010008E3010008E3010008B0
:1000A000E3010008E3010008E3010008E3010008A0
:1000B000E3010008E3010008E3010008E301000890
:1000C000E3010008E3010008E3010008E301000880
:1000D000E3010008E3010008E3010008E301000870
:1000E000E3010008E3010008E301000800F002F862
:1000F00000F05AF80AA090E8000C82448344AAF168
:100100000107DA4501D100F04FF8AFF2090EBAE865
:100110000F0013F0010F18BFFB1A43F0010318473B
:10012000D01F0000F01F00000A444FF0000C10F830
:10013000013B13F0070408BF10F8014B1D1108BF65
:1001400010F8015B641E05D010F8016B641E01F805
:10015000016BF9D113F0080F1EBF10F8014BAD1C55
:100160000C1B09D16D1E58BF01F801CBFAD505E073
:1001700014F8016B01F8016B6D1EF9D59142D6D3CD
:10018000704700000023002400250026103A28BFF5
:1001900078C1FBD8520728BF30C148BF0B607047F9
:1001A0001FB51FBD10B510BD00F058F81146FFF780
:1001B000F7FF01F025FB00F076F803B4FFF7F2FF3C
:1001C00003BC00F07DF8000009488047094800475B
:1001D000FEE7FEE7FEE7FEE7FEE7FEE7FEE7FEE7F7
:1001E000FEE7FEE704480549054A064B7047000054
:1001F00039100008ED000008283C002028420020AB
:10020000283E0020283E00204FF0000200B5134693
:1002100094469646203922BFA0E80C50A0E80C5026
:10022000B1F12001BFF4F7AF090728BFA0E80C50D7
:1002300048BF0CC05DF804EB890028BF40F8042BD0
:1002400008BF704748BF20F8022B11F0804F18BF3D
:1002500000F8012B7047704770477047754600F0F3
:100260002BF8AE4605006946534620F00700854648
:1002700018B020B5FFF7B6FFBDE820404FF00006EC
:100280004FF000074FF000084FF0000BAC46ACE811
:10029000C009ACE8C009ACE8C009ACE8C00921F06D
:1002A00007018D46704710B50446AFF30080204625
:1002B000BDE81040FFF781BF004870476803002089
:1002C00001491820ABBEFEE726000200704700007F
:1002D00041F21400C4F20200016841F00101016022
:1002E0000820C4F20200016821F0100101600168D9
:1002F00041F020010160016821F0400101600168C6
:1003000041F080010160016821F4407101600168E1
:1003100041F480710160016821F44061016001686D
:1003200041F480610160016821F44051016070472F
:1003300081B0ADF802200822C4F20202D0609160C0
:10034000BDF802005060106840F00100106001B07C
:1003500070470000F0B541F2180CC4F2020CDCF852
:10036000003043F00403CCF8003092B140F60003B3
:10037000C4F201034C1E4FF00F0E154614F8016F26
:100380001F68B6000EFA06F627EA0606013D1E6053
:10039000F4D142F20043C4F20103984208D042F67D
:1003A0000003C4F20103984209D14FF4806301E0D5
:1003B0004FF40073DCF800703B43CCF80030436826
:1003C00023F400034360436823F4702343604368CD
:1003D00023F400634360436843F40073436043685D
:1003E00043F480734360436843F040034360836891
:1003F00023F480038360836823F48013836083681D
:1004000043F460238360836823F40063836083681C
:1004100043F480738360836843F002038360CAB14E
:100420004B1E4FF0070C4FF0050E144613F8015FFA
:10043000066905EB45050CFA05F526EA0505056193
:100440001D78066905EB45050EFA05F53543013CB7
:100450000561EBD1C36A23F47003C36240F2000369
:10046000CFF6F073C76A03EB025343EA0703C36294
:10047000C2B1013902EB820200234FF01F0C00BF12
:1004800011F8017F466B07EB87070CFA07F726EA9E
:10049000070747630F78466B9F40053337439A42FF
:1004A0004763EDD1816841F001018160816841F0CD
:1004B00001018160816841F480018160F0BD00002C
:1004C0002DE9F04740F600490C4641F48061C4F242
:1004D000010990464945054601D1012006E0A4F1F5
:1004E0008040A0F58830B0FA80F0400942F6004A1A
:1004F000C4F2010A00F052FE0646A5EB0A0005F11F
:100500004041B0FA80F0B1FA81F14009490908434D
:1005100000F044FE07460020B8F1080F38BF012064
:1005200000F03CFE002E18BF002F01D1BDE8F0877F
:100530000028FBD041F218005545C4F2020024D037
:10054000B5F1804F49D141684FF0FF3341F00101CF
:1005500041604FF080410A88232742F080020A80E0
:100560000A8822F003020A801422C4F200021383D4
:100570000023138297829383138843F0010313802F
:100580000A8842F001020A8027E00168472241F40C
:1005900000610160BAF8001041F08001AAF8001073
:1005A000BAF8001021F00301AAF800104FF0FF3153
:1005B000AAF82C100021AAF82410AAF82820AAF8DA
:1005C0003010BAF8141041F00101AAF81410BAF86A
:1005D000001041F00101AAF8001040F60001C4F239
:1005E00001018C4209D041F20001C4F201018C42A8
:1005F00005D04C4507D1082102E0042100E010217C
:100600000268114301604FEA88010F20226800FA56
:1006100001F322EA0300206003202268884010438F
:1006200020600120E26800FA08F00243E260E76817
:10063000DA4327EA0003E36012230027AF8400BFF8
:10064000AE8CB6F57A7FFBD3013B1E06F6D1E3688C
:100650000343E36023681A4022600822236802FAF9
:1006600001F1194321602169014321610021A9841D
:10067000AA8C3B2A06D8A1680142F9D101213B2A64
:1006800003D90CE000213B2A09D80022AA8400BF2C
:10069000AA8C632A03D8A2680242F9D00221022957
:1006A0007FF444AF0021A984A98C632988BFBDE8E9
:1006B000F087A1680142F7D138E700000420C4F2B6
:1006C000020050F8041C890358BF7047016841F4C8
:1006D000003101607047000081B0ADF8022058225F
:1006E000C4F20202D0609160BDF802005060106850
:1006F00040F00100106001B07047000010B540F2FA
:100700001444C4F201042068C00708BF10BD40F2C1
:10071000D810C2F2000001684A68002A1CBF49686C
:100720000160016840F24B30C2F20000027845F2ED
:100730000040C4F2000000F0B5FD206840F0010068
:10074000206010BD2DE9F04182B040F21446C4F2A1
:1007500001063068800740F1A58040F2D817C2F248
:1007600000073968087808281CD147F6004442F28F
:100770001405C0F60004C2F20005204629460222F4
:1007800000F034FA40F24B38C2F2000898F800004A
:10079000032840D0022848D12868272843D8286851
:1007A000013041E0087803281BD140F21944C2F21D
:1007B000000420780130207040F24B30C2F200007B
:1007C0000078022840F06A802078032840F0668094
:1007D000C86918B1CA690020002190470020207024
:1007E0005CE008780A2859D143F61C40C2F20000A8
:1007F0000078831E0E2B46D8FE200122DFE803F08E
:100800003843084327432A432D43304333433600BC
:10081000FD2002222CE068683B288EBF28206868F3
:100820000130686001E014202860204600F0B0F933
:10083000286801A9ADF8040068680422ADF8060034
:10084000204600F0FBF9396898F8002020E0FB20F2
:1008500004220DE0F72008220AE0EF20102207E032
:10086000DF20202204E0BF20402201E07F20802200
:1008700040F2A003C2F200031F781D781740284001
:1008800038435040187040F24B30C2F200000278FA
:1008900045F20040C4F2000000F004FD306840F072
:1008A0000200306002B0BDE8F081000010B540F2F7
:1008B0001444C4F201042068400758BF10BD40F240
:1008C0004B30C2F200000178032926BF01780139BC
:1008D0000421017040F2D811C2F2000109680278C7
:1008E00045F20040C4F2000000F0DCFC206840F05B
:1008F0000400206010BD0000F0B581B040F2144546
:10090000C4F20105286800073ED540F2D816C2F2AD
:100910000006316845F20044087840F24B37C4F2D3
:1009200000040A28C2F200070FD143F61C40C2F2AD
:1009300000000278023202700278122A04BF0222FA
:1009400002703A78204600F0ADFC3878042808D0D0
:1009500003280BD002280ED13068016959B1006913
:1009600008E03068816B31B1806B03E03068416A28
:1009700009B1406A306031683A78204600F092FC54
:10098000286840F00800286001B0F0BD10B540F2C2
:100990001444C4F201042068C00658BF10BD40F2E0
:1009A0004B30C2F20000017803299ABF017801316F
:1009B0000221017040F2D811C2F2000109680278E8
:1009C00045F20040C4F2000000F06CFC206840F0EA
:1009D0001000206010BD000041F21801C4F20201B5
:1009E00008684FF6104C40F0010008600820C4F27F
:1009F00001000268CFF6FF7C22F00F02026002685D
:100A000022F0F0020260026822F470420260026882
:100A100042F001020260026842F0100202600268C5
:100A200022F470620260026822F47042026042683E
:100A300022F00F024260426842F0010242600A68FE
:100A400042F008020A600A6842F004020A6040F6B6
:100A50000041C4F201010A6822F00F020A600A682C
:100A600042F008020A600A6942F001020A61D0F805
:100A7000F82342F00102C0F8F82340F20C42C4F21D
:100A80000102136843F001031360D0F8003423F02F
:100A90000103C0F800340B6823F0F0030B600B680F
:100AA00043F080030B600B6943F002030B61D0F845
:100AB000F83343F00203C0F8F833136843F002033D
:100AC0001360D0F8003423F00203C0F80034D2F8E9
:100AD000F43323F47063C2F8F433D2F8F43343F4FC
:100AE0000063C2F8F43351F80C3043F0040341F8CA
:100AF0000C30D0F8F83343F00403C0F8F83313682F
:100B000043F004031360D0F8003423F00403C0F86A
:100B10000034D2F8F43323F47043C2F8F433D2F83B
:100B2000F43343F40043C2F8F43351F80C3043F08B
:100B3000080341F80C30D0F8F83343F00803C0F84C
:100B4000F833136843F008031360D0F8003423F03F
:100B50000803C0F800340B6823F470230B600B68A3
:100B600043F400230B600B6943F010030B61D0F8D2
:100B7000F81341F01001C0F8F813116841F01001AA
:100B80001160D0F8001421F01001C0F80014704773
:100B900081B042F21001C4F2020100900868000620
:100BA0000BD540F22310C4F2675041F80C0C48F604
:100BB000AB10CCF6EF5041F80C0C086840F0020086
:100BC000086000984860086840F04000086000BF76
:100BD00051F8040C8007FBD4086820F0020008607C
:100BE000086820F04000086001B0704782B042F20F
:100BF0000403C4F202030190009200BF98688007CA
:100C0000FCD4D868000609D540F22310C4F267501E
:100C1000186048F6AB10CCF6EF501860009850B151
:100C2000002000BF019A32F8102041F82020009ADD
:100C300001309042F6D302B07047000010B582B088
:100C400042F2100CC4F2020C01900092DCF8000099
:100C5000800705D5DCF8000020F00200CCF8000089
:100C60000098C00702D00098013000900098DCF88E
:100C700000204FEA500E12060BD540F22312C4F2A8
:100C800067524CF80C2C48F6AB12CCF6EF524CF8ED
:100C90000C2CDCF80020BEF1000F42F00102CCF871
:100CA000002015D04EF614530022CEF2000307E0C8
:100CB00031F81200019C24F812000132964507D049
:100CC00018680007F4D5186820F008001860EFE7EE
:100CD0005CF8040C8007FBD4DCF8000020F0010075
:100CE000CCF8000002B010BDF0B581B040F2C837BA
:100CF000C2F2000797F900200028D0B21FD00328C5
:100D00003ED840F6100424A3C4F2010453F8223064
:100D1000256825A62B43236056F8226023680FF22E
:100D2000980C334323605CF82210236826A51943EE
:100D3000216055F8222021681143216020E003281A
:100D40001ED840F6100424A3C4F2010453F822C0B4
:100D5000256825A345EA0C05256053F8226025681F
:100D60000FF2940E2E4326605EF8223026680FF2B2
:100D7000980C334323605CF8222023681A432260D6
:100D80000130C1B2032988BF00203870022000F072
:100D9000A3FF01B0F0BD00BF000010000000100074
:100DA00000001000100000000000200000002000E3
:100DB0002000000000002000000040004000000073
:100DC00000004000000040008000000000008000A3
:100DD00000008000000080001000000000001000F3
:100DE00000001000000010000000200020000000A3
:100DF0000000200000002000000040000000400033
:100E00004000000000004000000080000000800062
:100E1000000080008000000042F60400C4F20000E0
:100E20000188C90708BF704743F61D41C2F200019F
:100E30000A7801320A70018821F0010101807047AF
:100E400070B50C460546B0F5806F4FF0010008DB29
:100E50000ED0B5F5006F0BD0B5F5805F08D000203F
:100E600006E0B5F5807F03D0B5F5007F18BF002000
:100E700000F094F906460020022C38BF012000F053
:100E80008DF9002E18BF002807D0002D08BF70BDB7
:100E90002046FFF729FF013DFAD170BD41F218004D
:100EA000C4F20200016841F00401016040F6000054
:100EB000C4F20100016821F470210160016841F46D
:100EC00040310160016941F480110161016821F440
:100ED00070010160016841F440110160016941F451
:100EE00000110161016821F070610160016841F049
:100EF00040710160016941F480010161016821F0E4
:100F000070410160016841F040510160016941F4A4
:100F1000000101617047000080B500F001F880BD5C
:100F200082B041F204000021C4F20200019100915C
:100F300050F8041C41F4803140F8041C50F8041CA3
:100F400001F400310091019901310191009919B921
:100F50000199B1F5A06FF1D150F8041C890354BF79
:100F60000021012100910099012936D142F20001AE
:100F7000C4F202010A6842F010020A600A6822F014
:100F800003020A600A6842F002020A600168016016
:100F900001680160016841F480610160016821F429
:100FA0007C110160016841F4E811016050F8041CF3
:100FB00041F0807140F8041C50F8041C8901FBD5F5
:100FC000016821F003010160016841F00201016044
:100FD000016801F00C010829FAD102B07047000045
:100FE00010B543F6184EC2F2000EDEF8001040F2C3
:100FF000E0320131CEF800100021C2F200024FF0C1
:10100000FF0C02E00D3127290CD05318587DFF2822
:10101000F8D0D3F81100DEF80040A04208BF83F8F2
:1010200015C0EFE74EF60450CEF20000016841F023
:101030008051016010BD000080B541F20000C4F293
:1010400002000168002241F0010101604168CFF611
:10105000FF021140416001684FF6FF72CFF6F66261
:1010600011400160016821F480210160416821F490
:10107000FE0141604FF41F018160FFF74DFF4EF606
:101080000850CEF200004FF00061016080BD00000A
:1010900041F21801C4F202010A6842F004020A6037
:1010A00040F60402C4F20102136823F0F003136057
:1010B000136823F470631360136843F0B003136084
:1010C000136843F400631360936843F48063936090
:1010D0000A6842F480420A60828942F400528281A6
:1010E000828922F480528281028A22F44052028252
:1010F00041F64C520281828942F004028281828A46
:1011000042F04002828251F8040C40F0010041F8A4
:10111000040C5820C4F20200016821F010010160A3
:10112000016841F020010160016821F04001016087
:10113000016841F080010160016821F440710160A3
:10114000016821F440610160016821F440510160AF
:10115000016841F00201016070470000002848BFAB
:10116000704700F01F00012101FA00F04EF200115B
:10117000CEF20001086070474EF6145300F00F02E3
:10118000CEF2000309011A4400F16043B0F1FF3FC1
:10119000C8BF03F56442117070470000002840F298
:1011A0001840C2F2000004BF01210170007880F0F5
:1011B0000100704710B504464EF21000CEF2000058
:1011C0000021016041604FF0010080F31388206826
:1011D00000F038FD6068804710BD000010B54CF687
:1011E000CD4E8C460A28CCF6CC4E4FF0010209D3E6
:1011F000014600BF8BB2A3FB0E14E108632B02F182
:101200000102F7D891B200230A280CF8013010D35C
:1012100083B20146A3FB0E04E00800EB8004013A10
:10122000A1EB440141F0300194B2632B0CF804109F
:10123000EED8511E00F1300289B260460CF8012050
:1012400010BD00004EF62450CEF20000016841F4BB
:1012500080210160016841F400310160016841F4BE
:1012600080310160704700006FF06F0202EB0012E6
:101270003A2838BF02013A2928BF093101F00F008E
:101280001044C0B27047000040F24530C2F2000086
:1012900000780D21484340F2E031C2F200010858C5
:1012A0007047000070B582B08DF807200D460978B0
:1012B000044608295AD120460121002200F022FAD2
:1012C000A968204600F08AFA20460221002200F098
:1012D00019FAE968204600F081FA2046032100222D
:1012E00000F010FA296A204600F078FA204604211E
:1012F000002200F007FA696B204600F06FFA9DF8B3
:1013000007102046002200F0FDF942F2C401C0F6A9
:101310000001204600F062FA42F21405C2F2000514
:1013200047F60040C0F6000029460222FFF75EFCA7
:1013300020460221102200F0E5F9286840F2C93663
:10134000C2F2000680B23146FFF748FF0146204650
:1013500000F044FA20460321102200F0D3F9686817
:10136000314680B2FFF73AFF014672E0287809283B
:101370002ED120460121002200F0C4F9A9682046A0
:1013800000F02CFA20460221002200F0BBF9E968A7
:10139000204600F023FA20460321002200F0B2F993
:1013A000296A204600F01AFA20460421002200F0A3
:1013B000A9F9696B204600F011FA9DF80710204644
:1013C000002200F09FF942F2C401C0F6000140E0A3
:1013D0002878002842D02E7820460121002200F0F3
:1013E00091F9A968204600F0F9F92046022100226F
:1013F00000F088F90A2E40F0878040F2A000C2F287
:101400000000007840F24C31C2F2000100F08EFC86
:10141000E860E968204600F0E1F920460321002257
:1014200000F070F9296A204600F0D8F9204604211E
:10143000002200F067F9696B204600F0CFF943F60F
:101440001C40C2F2000002782046032100F05AF945
:1014500040A1204600F0C2F902B070BD2046012133
:10146000002200F04FF9A968204600F0B7F92046A5
:101470000221002200F046F9E968204600F0AEF9AA
:1014800020460321002200F03DF9296A204600F0A1
:10149000A5F920460421002200F034F9696B2046AA
:1014A00000F09CF99DF807102046002200F02AF970
:1014B00042F2C401C0F60001204600F08FF942F26A
:1014C0001C00C2F200004178612940D181786E2968
:1014D0003DD1C07867283AD145F20044C4F20004F7
:1014E00020460421112200F00DF91BA1204600F036
:1014F00075F940F2901040F2FC21C2F20000C2F2F5
:101500000001816302B070BDE968204600F066F911
:1015100020460321002200F0F5F8296A204600F059
:101520005DF920460421002200F0ECF8696B2046AA
:1015300000F054F99DF807102046002200F0E2F870
:1015400042F2C401C0F60001204600F047F902B0A3
:1015500070BD00BF5E000000282A2900018200BF84
:10156000818A8907FCD5818A008B704745F200414A
:10157000C4F20001884241F21801C4F202010FD105
:101580000A6842F008020A6040F60042C4F2010212
:10159000136843F070631360136843F07043136083
:1015A0004A6842F400124A60018841F40041018017
:1015B00001886FF3DF310180818821F03F01818054
:1015C000818841F024018180B42181832521018417
:1015D000018841F00101018070470000F0B581B041
:1015E0001D4616460F46044600F014F820463946BC
:1015F000FFF7B4FF45B10020A18A0906FCD5315C94
:101600000130A8422182F7D1A08A4007FCD501B061
:10161000F0BD0000018841F480710180818AC90712
:10162000FCD0808A704700002DE9F04744F200406A
:10163000C2F2000040F2E03A00F54061C2F2000A56
:10164000CAF8001000F50061CAF80D1000F58061BD
:10165000CAF81A10CAF82700FF208AF808008AF88A
:1016600015008AF822008AF82F0040F24800C2F2E2
:10167000000090E80E00C06800250D264FF080782D
:101680006FF00209CAF80910CAF81620CAF8233008
:10169000CAF8300005FB06F05AF8004005FB06A723
:1016A00044F8048CD7F80900342144E90390A4F1EC
:1016B0004000FEF7A9FD0C2004304028FCD1013584
:1016C000201A042D386008BFBDE8F087E2E700006B
:1016D00080B582B001F0F002090102F10D03093278
:1016E0008DF8052001F10D0209318DF804308DF8D7
:1016F00006208DF8071001AA4E210423FFF76EFF84
:1017000002B080BD0139032907D8DFE801F00208E3
:101710000B0E6FF07F01514009E0002107E0A2F1BC
:10172000400104E0A2F16C0101E0A2F12C0180B5BE
:10173000C9B200F039F8022000F0CEFA80BD0000F6
:1017400010B53321044600F02FF82046322100F076
:101750002BF8022000F0C0FA2046282100F024F8DF
:10176000022000F0B9FA2046012100F01DF8022005
:1017700000F0B2FA2046062100F016F8022000F030
:10178000ABFA20460C2100F00FF8022000F0A4FA7A
:101790002046022100F008F8022000F09DFA2046C1
:1017A000802100F001F810BD80B582B001F0F00298
:1017B000090102F10C0308328DF8052001F10C0239
:1017C00008318DF804308DF806208DF8071001AA35
:1017D0004E210423FFF702FF02B080BDB0B50A78A6
:1017E000002A08BFB0BD04464D1E00BFD1B220463E
:1017F000FFF76EFFAA780135002AF7D1B0BD0000CF
:10180000FFF720FD44F20000C2F2000000F0A0FA51
:10181000FFF70AFF00F09FFA00F050FA4FF0FF3098
:101820000021FFF7A9FC4FF0FF30FFF797FC6FF0A6
:1018300001000A21FFF7A0FC00F03AF8002918BFC8
:10184000704770B584B0044600686168227A00234E
:10185000ADF80C3002930193FEF732FED4E900019B
:10186000227AE36800F046F9206902211022FFF78E
:1018700049FFD4E9030501AE80783146FFF7AEFC9D
:1018800001462846FFF7AAFF206903211022FFF72F
:1018900039FFD4E9030431460078FFF79FFC014685
:1018A0002046FFF79BFF04B0BDE870407047000082
:1018B00082B045F20045C4F2000546F20009284610
:1018C000C0F60009FFF752FE2846FFF739FF05F57D
:1018D0006440FFF7DDFB42F21C05C2F2000543F64F
:1018E0000401C4F20101284641F6F932FEF7F4FE84
:1018F0000F20FFF733FC0F200221FFF73DFC40F2E1
:101900001B4040F21A4B43F62044C2F20000C2F2E0
:10191000000B05F1020AC2F200040138019000BF79
:1019200028787328FCD168786128F9D1A8786E28C6
:10193000F6D1E8786728F3D19BF800000027013042
:1019400056468BF8000000BF16F8020F7178FFF7BB
:101950008BFCE0550137022FF6D12068092812D3FD
:10196000019F4FF0000800BF05EB0801087A497A93
:10197000FFF77AFC07F8010F206808F10A0108F167
:1019800002088142F0D307264F4600BF3846FFF7D2
:10199000FFF8013E07F2FF37F8D1226840F21B4101
:1019A0004846C2F20001FFF749F9642000F094F9BB
:1019B0009BF80000022804BF78202870B0E70000E0
:1019C00042F2004440F24431C4F20104C2F2000188
:1019D00020460122FEF7BEFCFEF77AFC04F14C0122
:1019E00040F21644C2F2000420460122FEF7A0FC99
:1019F000FFF754FA2088FF28FCD84FF480700121AB
:101A0000FFF71EFA4FF47A7000F066F9F2E7000073
:101A100045F20044C4F200042046FFF7A7FD20462B
:101A2000FFF78EFE40F2D81740F24B30C2F20007AB
:101A3000C2F20000396802782046FFF733FCFEF757
:101A4000CBFF06200121FFF797FB0620FFF786FB5F
:101A500007200121FFF790FB0720FFF77FFB0820FD
:101A60000121FFF789FB0820FFF778FB09200121FE
:101A7000FFF782FB0920FFF771FB0A200121FFF726
:101A80007BFB0A20FFF76AFB03200221FFF774FBB0
:101A90000320FFF763FB42F2140447F6004840F2CC
:101AA000463540F2EC06C2F20004C0F60008C2F26D
:101AB0000005C2F2000600BF3868416939B14269C9
:101AC00030460021904741F2883000F005F938682F
:101AD0000078082804D1404621460222FFF786F804
:101AE000A87821688142E7D3A8782068E4E700005D
:101AF000FEE700002DE9F04740F214459846914674
:101B00000E4607464FF0FF34C2F200054FF0000AC0
:101B1000384631464A4685F800A000F069F8297831
:101B20004A4601F07F0141EAC0102870384631462C
:101B300000F05EF8297800F0010001F0BF0141EAF1
:101B400080102870384631464A4600F051F829780E
:101B500000F0010001F0DF0141EA40102870384632
:101B600031464A4600F044F8297800F0010001F0BF
:101B7000EF0141EA00102870384631464A4600F02D
:101B800037F8297800F0010001F0F70141EAC000C0
:101B90002870384631464A4600F02AF8297800F085
:101BA000010001F0FB0141EA80002870384631460F
:101BB0004A4600F01DF8297800F0010001F0FD010F
:101BC00041EA40002870384631464A4600F010F895
:101BD000297800F0010001F0FE01084428702878FF
:101BE00008EB04010134042C487091D1BDE8F08762
:101BF00000238384012303FA02F200BF838C632B4A
:101C00000FD88B681342F9D000238384838C632B15
:101C100007D88B681342F9D1808C322884BF012009
:101C2000704700207047000040F24531C2F20001C9
:101C300009780D22514340F2E032C2F200025050C6
:101C40007047000080F308887047704780B540F601
:101C5000B83000F041F846F20000C0F60000FFF78F
:101C6000A9FA80BD80B540F2453040F2E03C002149
:101C7000C2F20000C2F2000C4FF00D0E04E000BFF3
:101C8000032901F1010113D20278013202700278B6
:101C900002F003020270027802FB0EC2127A03788D
:101CA00003FB0EC31B7AFF2BEAD10378002BE7D08E
:101CB000FF2A1CBF0021017080BD00004EF2100001
:101CC00041F63F11CEF20000C0F201014160002157
:101CD000816007210160704780B5EFF3108172B613
:101CE00040F24531C2F200010A78E2B143F61842EF
:101CF000C2F2000212680B7840F2E03CC2F2000C23
:101D00004FF00D0E03FB0EC31044586008780021FD
:101D100000FB0EC001724EF60450CEF200000168C6
:101D200041F08051016062B680BD00008C46002207
:101D300020FA02F3DB070CEB42014FF0310302F112
:101D4000010208BF3023082A8B70F1D1604670472A
:101D500080F30888704700B5FFF796FA80F309888A
:101D60005DF804EB4FF0020080F31488704772B600
:101D7000EFF3098020E9F00F00B5FFF755FFFFF7FB
:101D800071FFFFF781FAB0E8F00F80F309885DF882
:101D900004EB62B670472020202020202020202045
:101DA0002020202020202020202000202050554DC1
:101DB0005020202020202020202020202020200013
:101DC0002020444854313120202020202020202071
:101DD000202020200020534156455F44415441209B
:101DE0002020202020202020202000202053455487
:101DF00054494E4720202020202020202020200051
:101E00002020434F4E54524F4C2020202020202091
:101E10002020202000202053454E534F5253202095
:101E20002020202020202020200020204143544931
:101E300056455F3120202020202020202020002017
:101E4000204143544956455F322020202020202045
:101E50002020200020204143544956455F33202054
:101E600020202020202020200020205448524553AC
:101E70004F4C442020202020202020202000202003
:101E80004F5554484F5553452020202020202020D6
:101E9000202000202047415244454E5F3120202021
:101EA00020202020202000202047415244454E5F22
:101EB00032202020202020202020002020574152A6
:101EC0004E494E47203A202020202020202020006C
:101ED00020204E4F5F555044415445202020202063
:101EE000202020200020204143545541544F52537C
:101EF0002020202020202020200020202020202002
:101F0000204448543131202020202020202000204F
:101F100020444F20414D202020203A202020202006
:101F20002020200020204E4849455420444F203A8C
:101F3000202020202020202000202020202020558C
:101F400050444154452020202020202020002020E3
:101F50005945535F555044415445202020202020AE
:101F6000202000202020202020434F4E54524F4C50
:101F7000202020202020200020205241494E5F5365
:101F8000454E534F52202020202020200020204169
:101F900044445F53454E534F52532020202020206D
:101FA0002000202020202053455454494E475F31C3
:101FB00020202020202000202020202020474152C7
:101FC00044454E5F3120202020202000202020206A
:101FD0002053454E534F52535F3120202020202064
:101FE0000020202020202047415244454E5F3220CF
:101FF0002020202020002054485245534F4C445F5D
:1020000054454D203A2020202020200020544852C2
:1020100045534F4C445F48554D203A202020202006
:102020002000202020202054485245534F4C445F2C
:102030003120202020200020202020204F555448EF
:102040004F5553455F3120202020200020202020A4
:102050004143545541544F52535F3120202020209A
:10206000002020544841495F56414E5F53414E473E
:102070002020202020002020202020204D41494EDB
:102080005F4D454E5520202020002D2D2D2D2D2D2E
:102090002D5456532D2D2D2D2D2D2D2D2D2D002034
:1020A000205550444154455F56455253494F4E3A8E
:1020B000003C20303D303D303D303D303D303D3006
:1020C0003D3020203E00202050554C4C20494E20D1
:1020D000203A202020202020434D0020205055531E
:1020E00048204F5554203A202020202020434D00E6
:1020F00010210008000000206403000028010008EF
:102100003422000868030020C03E0000840100085B
:102110004205120114204C201408AB1D02100813B4
:102120007E1E1B08DC20D119142258B91413F11A91
:102130001408B1181408C1191B08110C620A1C20DC
:10214000631F18195C01100A11966C0A118A283253
:102150006832071324021B20FA781A2450411A3DD2
:102160006C815A0F14C11A692C1AB434D1142C0181
:10217000401A0804311B46031C12543340011A90C4
:10218000E01AB7442A1560D9341AE51429C8C11ACF
:10219000EBBCDA6C285A02485AE14801105948D180
:1021A000294801181376202B0893341954C11AA713
:1021B00014DA48141A9F2C0110298C62091B20374D
:1021C000200A11C6240A11DB140A11BBA842041903
:1021D000501ACCDC1AC0B41AA454C11A78180110D1
:1021E0000A118D145A06481AA21C0A112A680A11EB
:1021F0003F140A115414291129841A22C00A11F615
:10220000680A110CD81AD5B8011032031A90901A26
:102210003944DA4E48134D1C0B1108D07C0A116169
:102220005C2C01010A01BE023C20303D024420200A
:042230003E0000006C
:04000005080001C925
:00000001FF
